{"abi":[{"type":"constructor","inputs":[],"stateMutability":"nonpayable"},{"type":"receive","stateMutability":"payable"},{"type":"function","name":"Quiz_list","inputs":[{"name":"","type":"uint256","internalType":"uint256"}],"outputs":[{"name":"id","type":"uint256","internalType":"uint256"},{"name":"question","type":"string","internalType":"string"},{"name":"answer","type":"string","internalType":"string"},{"name":"min_bet","type":"uint256","internalType":"uint256"},{"name":"max_bet","type":"uint256","internalType":"uint256"}],"stateMutability":"view"},{"type":"function","name":"addQuiz","inputs":[{"name":"q","type":"tuple","internalType":"struct Quiz.Quiz_item","components":[{"name":"id","type":"uint256","internalType":"uint256"},{"name":"question","type":"string","internalType":"string"},{"name":"answer","type":"string","internalType":"string"},{"name":"min_bet","type":"uint256","internalType":"uint256"},{"name":"max_bet","type":"uint256","internalType":"uint256"}]}],"outputs":[],"stateMutability":"nonpayable"},{"type":"function","name":"betToPlay","inputs":[{"name":"quizId","type":"uint256","internalType":"uint256"}],"outputs":[],"stateMutability":"payable"},{"type":"function","name":"bets","inputs":[{"name":"","type":"uint256","internalType":"uint256"},{"name":"","type":"address","internalType":"address"}],"outputs":[{"name":"","type":"uint256","internalType":"uint256"}],"stateMutability":"view"},{"type":"function","name":"claim","inputs":[{"name":"quizId","type":"uint256","internalType":"uint256"}],"outputs":[],"stateMutability":"nonpayable"},{"type":"function","name":"getAnswer","inputs":[{"name":"quizId","type":"uint256","internalType":"uint256"}],"outputs":[{"name":"","type":"string","internalType":"string"}],"stateMutability":"view"},{"type":"function","name":"getQuiz","inputs":[{"name":"quizId","type":"uint256","internalType":"uint256"}],"outputs":[{"name":"","type":"tuple","internalType":"struct Quiz.Quiz_item","components":[{"name":"id","type":"uint256","internalType":"uint256"},{"name":"question","type":"string","internalType":"string"},{"name":"answer","type":"string","internalType":"string"},{"name":"min_bet","type":"uint256","internalType":"uint256"},{"name":"max_bet","type":"uint256","internalType":"uint256"}]}],"stateMutability":"view"},{"type":"function","name":"getQuizNum","inputs":[],"outputs":[{"name":"","type":"uint256","internalType":"uint256"}],"stateMutability":"view"},{"type":"function","name":"list_count","inputs":[],"outputs":[{"name":"","type":"uint256","internalType":"uint256"}],"stateMutability":"view"},{"type":"function","name":"solveQuiz","inputs":[{"name":"quizId","type":"uint256","internalType":"uint256"},{"name":"ans","type":"string","internalType":"string"}],"outputs":[{"name":"","type":"bool","internalType":"bool"}],"stateMutability":"nonpayable"},{"type":"function","name":"vault_balance","inputs":[],"outputs":[{"name":"","type":"uint256","internalType":"uint256"}],"stateMutability":"view"}],"bytecode":{"object":"0x608060405234801561000f575f5ffd5b50600380546001600160a01b031916331790556040805160a081018252606060208083018281528385018381525f938501848152608086019485526001808752875180890189526005815264312b313d3f60d81b818701529093528651808801909752918652601960f91b92860192909252939052670de0b6b3a7640000909252671bc16d674ec800009091526100a5816100ab565b5061030a565b6003546001600160a01b031633146100f75760405162461bcd60e51b815260206004820152600b60248201526a4f6e6c79204f776e65722160a81b604482015260640160405180910390fd5b6040805160a081018252825181526020808401518183019081528484015183850152606080860151908401526080808601519084015284515f90815260029092529290208151815591519091906001820190610153908261022c565b5060408201516002820190610168908261022c565b50606082015160038201556080909101516004918201558054905f61018c836102e6565b919050555050565b634e487b7160e01b5f52604160045260245ffd5b600181811c908216806101bc57607f821691505b6020821081036101da57634e487b7160e01b5f52602260045260245ffd5b50919050565b601f82111561022757805f5260205f20601f840160051c810160208510156102055750805b601f840160051c820191505b81811015610224575f8155600101610211565b50505b505050565b81516001600160401b0381111561024557610245610194565b6102598161025384546101a8565b846101e0565b6020601f82116001811461028b575f83156102745750848201515b5f19600385901b1c1916600184901b178455610224565b5f84815260208120601f198516915b828110156102ba578785015182556020948501946001909201910161029a565b50848210156102d757868401515f19600387901b60f8161c191681555b50505050600190811b01905550565b5f6001820161030357634e487b7160e01b5f52601160045260245ffd5b5060010190565b610f00806103175f395ff3fe60806040526004361061009d575f3560e01c80638f7b0961116100625780638f7b096114610163578063a3f7e09614610178578063b5ab58dc146101a4578063c0da916f146101d0578063f101b3f1146101e4578063f644b3bb14610203575f5ffd5b8063379607f5146100a8578063434c0c48146100c957806354c63f82146100f15780636e3946c5146101045780637487361f14610134575f5ffd5b366100a457005b5f5ffd5b3480156100b3575f5ffd5b506100c76100c236600461098c565b610222565b005b3480156100d4575f5ffd5b506100de60045481565b6040519081526020015b60405180910390f35b6100c76100ff36600461098c565b6102ea565b34801561010f575f5ffd5b5061012361011e36600461098c565b6103be565b6040516100e89594939291906109d1565b34801561013f575f5ffd5b5061015361014e366004610ad8565b6104f8565b60405190151581526020016100e8565b34801561016e575f5ffd5b506100de60015481565b348015610183575f5ffd5b5061019761019236600461098c565b6105f1565b6040516100e89190610b1c565b3480156101af575f5ffd5b506101c36101be36600461098c565b610793565b6040516100e89190610b7f565b3480156101db575f5ffd5b506004546100de565b3480156101ef575f5ffd5b506100c76101fe366004610b98565b61087d565b34801561020e575f5ffd5b506100de61021d366004610c4f565b610962565b5f8061022f600184610c9c565b8154811061023f5761023f610caf565b5f918252602080832033845290910190526040902054610260906002610cc3565b6040519091505f90339083908381818185875af1925050503d805f81146102a2576040519150601f19603f3d011682016040523d82523d5f602084013e6102a7565b606091505b5050905080156102e5575f806102be600186610c9c565b815481106102ce576102ce610caf565b5f9182526020808320338452909101905260409020555b505050565b5f81815260026020526040902060030154341080159061031a57505f818152600260205260409020600401543411155b6103605760405162461bcd60e51b8152602060048201526012602482015271496e6176616c6964206d73672e76616c756560701b60448201526064015b60405180910390fd5b5f54811115610374575f8054600101815580525b345f610381600184610c9c565b8154811061039157610391610caf565b5f918252602080832033845290910190526040812080549091906103b6908490610cda565b909155505050565b60026020525f9081526040902080546001820180549192916103df90610ced565b80601f016020809104026020016040519081016040528092919081815260200182805461040b90610ced565b80156104565780601f1061042d57610100808354040283529160200191610456565b820191905f5260205f20905b81548152906001019060200180831161043957829003601f168201915b50505050509080600201805461046b90610ced565b80601f016020809104026020016040519081016040528092919081815260200182805461049790610ced565b80156104e25780601f106104b9576101008083540402835291602001916104e2565b820191905f5260205f20905b8154815290600101906020018083116104c557829003601f168201915b5050505050908060030154908060040154905085565b5f8160405160200161050a9190610d25565b6040516020818303038152906040528051906020012060025f8581526020019081526020015f206002016040516020016105449190610d3b565b6040516020818303038152906040528051906020012003610567575060016105eb565b5f610573600185610c9c565b8154811061058357610583610caf565b5f91825260208083203384529091019052604081205460018054919290916105ac908490610cda565b909155505f9050806105bf600186610c9c565b815481106105cf576105cf610caf565b5f91825260208083203384529091019052604081209190915590505b92915050565b6106206040518060a001604052805f815260200160608152602001606081526020015f81526020015f81525090565b5f60025f8481526020019081526020015f206040518060a00160405290815f820154815260200160018201805461065690610ced565b80601f016020809104026020016040519081016040528092919081815260200182805461068290610ced565b80156106cd5780601f106106a4576101008083540402835291602001916106cd565b820191905f5260205f20905b8154815290600101906020018083116106b057829003601f168201915b505050505081526020016002820180546106e690610ced565b80601f016020809104026020016040519081016040528092919081815260200182805461071290610ced565b801561075d5780601f106107345761010080835404028352916020019161075d565b820191905f5260205f20905b81548152906001019060200180831161074057829003601f168201915b50505091835250506003820154602080830191909152600490920154604091820152805191820181525f82528201529392505050565b6003546060906001600160a01b031633146107de5760405162461bcd60e51b815260206004820152600b60248201526a4f6e6c79204f776e65722160a81b6044820152606401610357565b5f8281526002602081905260409091200180546107fa90610ced565b80601f016020809104026020016040519081016040528092919081815260200182805461082690610ced565b80156108715780601f1061084857610100808354040283529160200191610871565b820191905f5260205f20905b81548152906001019060200180831161085457829003601f168201915b50505050509050919050565b6003546001600160a01b031633146108c55760405162461bcd60e51b815260206004820152600b60248201526a4f6e6c79204f776e65722160a81b6044820152606401610357565b6040805160a081018252825181526020808401518183019081528484015183850152606080860151908401526080808601519084015284515f908152600290925292902081518155915190919060018201906109219082610df7565b50604082015160028201906109369082610df7565b50606082015160038201556080909101516004918201558054905f61095a83610eb2565b919050555050565b5f8281548110610970575f80fd5b905f5260205f2001602052805f5260405f205f91509150505481565b5f6020828403121561099c575f5ffd5b5035919050565b5f81518084528060208401602086015e5f602082860101526020601f19601f83011685010191505092915050565b85815260a060208201525f6109e960a08301876109a3565b82810360408401526109fb81876109a3565b60608401959095525050608001529392505050565b634e487b7160e01b5f52604160045260245ffd5b60405160a0810167ffffffffffffffff81118282101715610a4757610a47610a10565b60405290565b5f82601f830112610a5c575f5ffd5b813567ffffffffffffffff811115610a7657610a76610a10565b604051601f8201601f19908116603f0116810167ffffffffffffffff81118282101715610aa557610aa5610a10565b604052818152838201602001851015610abc575f5ffd5b816020850160208301375f918101602001919091529392505050565b5f5f60408385031215610ae9575f5ffd5b82359150602083013567ffffffffffffffff811115610b06575f5ffd5b610b1285828601610a4d565b9150509250929050565b60208152815160208201525f602083015160a06040840152610b4160c08401826109a3565b90506040840151601f19848303016060850152610b5e82826109a3565b91505060608401516080840152608084015160a08401528091505092915050565b602081525f610b9160208301846109a3565b9392505050565b5f60208284031215610ba8575f5ffd5b813567ffffffffffffffff811115610bbe575f5ffd5b820160a08185031215610bcf575f5ffd5b610bd7610a24565b81358152602082013567ffffffffffffffff811115610bf4575f5ffd5b610c0086828501610a4d565b602083015250604082013567ffffffffffffffff811115610c1f575f5ffd5b610c2b86828501610a4d565b60408301525060608281013590820152608091820135918101919091529392505050565b5f5f60408385031215610c60575f5ffd5b8235915060208301356001600160a01b0381168114610c7d575f5ffd5b809150509250929050565b634e487b7160e01b5f52601160045260245ffd5b818103818111156105eb576105eb610c88565b634e487b7160e01b5f52603260045260245ffd5b80820281158282048414176105eb576105eb610c88565b808201808211156105eb576105eb610c88565b600181811c90821680610d0157607f821691505b602082108103610d1f57634e487b7160e01b5f52602260045260245ffd5b50919050565b5f82518060208501845e5f920191825250919050565b5f5f8354610d4881610ced565b600182168015610d5f5760018114610d7457610da1565b60ff1983168652811515820286019350610da1565b865f5260205f205f5b83811015610d9957815488820152600190910190602001610d7d565b505081860193505b509195945050505050565b601f8211156102e557805f5260205f20601f840160051c81016020851015610dd15750805b601f840160051c820191505b81811015610df0575f8155600101610ddd565b5050505050565b815167ffffffffffffffff811115610e1157610e11610a10565b610e2581610e1f8454610ced565b84610dac565b6020601f821160018114610e57575f8315610e405750848201515b5f19600385901b1c1916600184901b178455610df0565b5f84815260208120601f198516915b82811015610e865787850151825560209485019460019092019101610e66565b5084821015610ea357868401515f19600387901b60f8161c191681555b50505050600190811b01905550565b5f60018201610ec357610ec3610c88565b506001019056fea26469706673582212203d830ae1ee84aa475a08b003507d793af2fe1cdae7b68ae56180a6333d27af1764736f6c634300081c0033","linkReferences":{}},"methodIdentifiers":{"Quiz_list(uint256)":"6e3946c5","addQuiz((uint256,string,string,uint256,uint256))":"f101b3f1","betToPlay(uint256)":"54c63f82","bets(uint256,address)":"f644b3bb","claim(uint256)":"379607f5","getAnswer(uint256)":"b5ab58dc","getQuiz(uint256)":"a3f7e096","getQuizNum()":"c0da916f","list_count()":"434c0c48","solveQuiz(uint256,string)":"7487361f","vault_balance()":"8f7b0961"},"id":18}