{"abi":[{"type":"constructor","inputs":[],"stateMutability":"nonpayable"},{"type":"receive","stateMutability":"payable"},{"type":"function","name":"Quiz_list","inputs":[{"name":"","type":"uint256","internalType":"uint256"}],"outputs":[{"name":"id","type":"uint256","internalType":"uint256"},{"name":"question","type":"string","internalType":"string"},{"name":"answer","type":"string","internalType":"string"},{"name":"min_bet","type":"uint256","internalType":"uint256"},{"name":"max_bet","type":"uint256","internalType":"uint256"}],"stateMutability":"view"},{"type":"function","name":"addQuiz","inputs":[{"name":"q","type":"tuple","internalType":"struct Quiz.Quiz_item","components":[{"name":"id","type":"uint256","internalType":"uint256"},{"name":"question","type":"string","internalType":"string"},{"name":"answer","type":"string","internalType":"string"},{"name":"min_bet","type":"uint256","internalType":"uint256"},{"name":"max_bet","type":"uint256","internalType":"uint256"}]}],"outputs":[],"stateMutability":"nonpayable"},{"type":"function","name":"betToPlay","inputs":[{"name":"quizId","type":"uint256","internalType":"uint256"}],"outputs":[],"stateMutability":"payable"},{"type":"function","name":"bets","inputs":[{"name":"","type":"uint256","internalType":"uint256"},{"name":"","type":"address","internalType":"address"}],"outputs":[{"name":"","type":"uint256","internalType":"uint256"}],"stateMutability":"view"},{"type":"function","name":"claim","inputs":[{"name":"quizId","type":"uint256","internalType":"uint256"}],"outputs":[],"stateMutability":"nonpayable"},{"type":"function","name":"getAnswer","inputs":[{"name":"quizId","type":"uint256","internalType":"uint256"}],"outputs":[{"name":"","type":"string","internalType":"string"}],"stateMutability":"view"},{"type":"function","name":"getQuiz","inputs":[{"name":"quizId","type":"uint256","internalType":"uint256"}],"outputs":[{"name":"","type":"tuple","internalType":"struct Quiz.Quiz_item","components":[{"name":"id","type":"uint256","internalType":"uint256"},{"name":"question","type":"string","internalType":"string"},{"name":"answer","type":"string","internalType":"string"},{"name":"min_bet","type":"uint256","internalType":"uint256"},{"name":"max_bet","type":"uint256","internalType":"uint256"}]}],"stateMutability":"view"},{"type":"function","name":"getQuizNum","inputs":[],"outputs":[{"name":"","type":"uint256","internalType":"uint256"}],"stateMutability":"view"},{"type":"function","name":"list_count","inputs":[],"outputs":[{"name":"","type":"uint256","internalType":"uint256"}],"stateMutability":"view"},{"type":"function","name":"solveQuiz","inputs":[{"name":"quizId","type":"uint256","internalType":"uint256"},{"name":"ans","type":"string","internalType":"string"}],"outputs":[{"name":"","type":"bool","internalType":"bool"}],"stateMutability":"nonpayable"},{"type":"function","name":"vault_balance","inputs":[],"outputs":[{"name":"","type":"uint256","internalType":"uint256"}],"stateMutability":"view"}],"bytecode":{"object":"0x608060405234801561000f575f5ffd5b50600380546001600160a01b031916331790556040805160a081018252606060208083018281528385018381525f938501848152608086019485526001808752875180890189526005815264312b313d3f60d81b818701529093528651808801909752918652601960f91b92860192909252939052670de0b6b3a7640000909252671bc16d674ec800009091526100a5816100ab565b5061030a565b6003546001600160a01b031633146100f75760405162461bcd60e51b815260206004820152600b60248201526a4f6e6c79204f776e65722160a81b604482015260640160405180910390fd5b6040805160a081018252825181526020808401518183019081528484015183850152606080860151908401526080808601519084015284515f90815260029092529290208151815591519091906001820190610153908261022c565b5060408201516002820190610168908261022c565b50606082015160038201556080909101516004918201558054905f61018c836102e6565b919050555050565b634e487b7160e01b5f52604160045260245ffd5b600181811c908216806101bc57607f821691505b6020821081036101da57634e487b7160e01b5f52602260045260245ffd5b50919050565b601f82111561022757805f5260205f20601f840160051c810160208510156102055750805b601f840160051c820191505b81811015610224575f8155600101610211565b50505b505050565b81516001600160401b0381111561024557610245610194565b6102598161025384546101a8565b846101e0565b6020601f82116001811461028b575f83156102745750848201515b5f19600385901b1c1916600184901b178455610224565b5f84815260208120601f198516915b828110156102ba578785015182556020948501946001909201910161029a565b50848210156102d757868401515f19600387901b60f8161c191681555b50505050600190811b01905550565b5f6001820161030357634e487b7160e01b5f52601160045260245ffd5b5060010190565b610f49806103175f395ff3fe60806040526004361061009d575f3560e01c80638f7b0961116100625780638f7b096114610163578063a3f7e09614610178578063b5ab58dc146101a4578063c0da916f146101d0578063f101b3f1146101e4578063f644b3bb14610203575f5ffd5b8063379607f5146100a8578063434c0c48146100c957806354c63f82146100f15780636e3946c5146101045780637487361f14610134575f5ffd5b366100a457005b5f5ffd5b3480156100b3575f5ffd5b506100c76100c23660046109d4565b610222565b005b3480156100d4575f5ffd5b506100de60045481565b6040519081526020015b60405180910390f35b6100c76100ff3660046109d4565b6102e1565b34801561010f575f5ffd5b5061012361011e3660046109d4565b610406565b6040516100e8959493929190610a19565b34801561013f575f5ffd5b5061015361014e366004610b20565b610540565b60405190151581526020016100e8565b34801561016e575f5ffd5b506100de60015481565b348015610183575f5ffd5b506101976101923660046109d4565b610639565b6040516100e89190610b64565b3480156101af575f5ffd5b506101c36101be3660046109d4565b6107db565b6040516100e89190610bc7565b3480156101db575f5ffd5b506004546100de565b3480156101ef575f5ffd5b506100c76101fe366004610be0565b6108c5565b34801561020e575f5ffd5b506100de61021d366004610c97565b6109aa565b5f8061022f600184610ce4565b8154811061023f5761023f610cf7565b5f918252602080832033845290910190526040902054610260906002610d0b565b604051909150339082905f81818185875af1925050503d805f81146102a0576040519150601f19603f3d011682016040523d82523d5f602084013e6102a5565b606091505b5050505f5f6001846102b79190610ce4565b815481106102c7576102c7610cf7565b5f9182526020808320338452909101905260409020555050565b5f81815260026020526040902060030154341080159061031157505f818152600260205260409020600401543411155b6103575760405162461bcd60e51b8152602060048201526012602482015271496e6176616c6964206d73672e76616c756560701b60448201526064015b60405180910390fd5b33313411156103a85760405162461bcd60e51b815260206004820152601d60248201527f6d73672e76616c7565206973206f766572207468652062616c616e6365000000604482015260640161034e565b5f805490036103bc575f8054600101815580525b345f6103c9600184610ce4565b815481106103d9576103d9610cf7565b5f918252602080832033845290910190526040812080549091906103fe908490610d22565b909155505050565b60026020525f90815260409020805460018201805491929161042790610d35565b80601f016020809104026020016040519081016040528092919081815260200182805461045390610d35565b801561049e5780601f106104755761010080835404028352916020019161049e565b820191905f5260205f20905b81548152906001019060200180831161048157829003601f168201915b5050505050908060020180546104b390610d35565b80601f01602080910402602001604051908101604052809291908181526020018280546104df90610d35565b801561052a5780601f106105015761010080835404028352916020019161052a565b820191905f5260205f20905b81548152906001019060200180831161050d57829003601f168201915b5050505050908060030154908060040154905085565b5f816040516020016105529190610d6d565b6040516020818303038152906040528051906020012060025f8581526020019081526020015f2060020160405160200161058c9190610d83565b60405160208183030381529060405280519060200120036105af57506001610633565b5f6105bb600185610ce4565b815481106105cb576105cb610cf7565b5f91825260208083203384529091019052604081205460018054919290916105f4908490610d22565b909155505f905080610607600186610ce4565b8154811061061757610617610cf7565b5f91825260208083203384529091019052604081209190915590505b92915050565b6106686040518060a001604052805f815260200160608152602001606081526020015f81526020015f81525090565b5f60025f8481526020019081526020015f206040518060a00160405290815f820154815260200160018201805461069e90610d35565b80601f01602080910402602001604051908101604052809291908181526020018280546106ca90610d35565b80156107155780601f106106ec57610100808354040283529160200191610715565b820191905f5260205f20905b8154815290600101906020018083116106f857829003601f168201915b5050505050815260200160028201805461072e90610d35565b80601f016020809104026020016040519081016040528092919081815260200182805461075a90610d35565b80156107a55780601f1061077c576101008083540402835291602001916107a5565b820191905f5260205f20905b81548152906001019060200180831161078857829003601f168201915b50505091835250506003820154602080830191909152600490920154604091820152805191820181525f82528201529392505050565b6003546060906001600160a01b031633146108265760405162461bcd60e51b815260206004820152600b60248201526a4f6e6c79204f776e65722160a81b604482015260640161034e565b5f82815260026020819052604090912001805461084290610d35565b80601f016020809104026020016040519081016040528092919081815260200182805461086e90610d35565b80156108b95780601f10610890576101008083540402835291602001916108b9565b820191905f5260205f20905b81548152906001019060200180831161089c57829003601f168201915b50505050509050919050565b6003546001600160a01b0316331461090d5760405162461bcd60e51b815260206004820152600b60248201526a4f6e6c79204f776e65722160a81b604482015260640161034e565b6040805160a081018252825181526020808401518183019081528484015183850152606080860151908401526080808601519084015284515f908152600290925292902081518155915190919060018201906109699082610e40565b506040820151600282019061097e9082610e40565b50606082015160038201556080909101516004918201558054905f6109a283610efb565b919050555050565b5f82815481106109b8575f80fd5b905f5260205f2001602052805f5260405f205f91509150505481565b5f602082840312156109e4575f5ffd5b5035919050565b5f81518084528060208401602086015e5f602082860101526020601f19601f83011685010191505092915050565b85815260a060208201525f610a3160a08301876109eb565b8281036040840152610a4381876109eb565b60608401959095525050608001529392505050565b634e487b7160e01b5f52604160045260245ffd5b60405160a0810167ffffffffffffffff81118282101715610a8f57610a8f610a58565b60405290565b5f82601f830112610aa4575f5ffd5b813567ffffffffffffffff811115610abe57610abe610a58565b604051601f8201601f19908116603f0116810167ffffffffffffffff81118282101715610aed57610aed610a58565b604052818152838201602001851015610b04575f5ffd5b816020850160208301375f918101602001919091529392505050565b5f5f60408385031215610b31575f5ffd5b82359150602083013567ffffffffffffffff811115610b4e575f5ffd5b610b5a85828601610a95565b9150509250929050565b60208152815160208201525f602083015160a06040840152610b8960c08401826109eb565b90506040840151601f19848303016060850152610ba682826109eb565b91505060608401516080840152608084015160a08401528091505092915050565b602081525f610bd960208301846109eb565b9392505050565b5f60208284031215610bf0575f5ffd5b813567ffffffffffffffff811115610c06575f5ffd5b820160a08185031215610c17575f5ffd5b610c1f610a6c565b81358152602082013567ffffffffffffffff811115610c3c575f5ffd5b610c4886828501610a95565b602083015250604082013567ffffffffffffffff811115610c67575f5ffd5b610c7386828501610a95565b60408301525060608281013590820152608091820135918101919091529392505050565b5f5f60408385031215610ca8575f5ffd5b8235915060208301356001600160a01b0381168114610cc5575f5ffd5b809150509250929050565b634e487b7160e01b5f52601160045260245ffd5b8181038181111561063357610633610cd0565b634e487b7160e01b5f52603260045260245ffd5b808202811582820484141761063357610633610cd0565b8082018082111561063357610633610cd0565b600181811c90821680610d4957607f821691505b602082108103610d6757634e487b7160e01b5f52602260045260245ffd5b50919050565b5f82518060208501845e5f920191825250919050565b5f5f8354610d9081610d35565b600182168015610da75760018114610dbc57610de9565b60ff1983168652811515820286019350610de9565b865f5260205f205f5b83811015610de157815488820152600190910190602001610dc5565b505081860193505b509195945050505050565b601f821115610e3b57805f5260205f20601f840160051c81016020851015610e195750805b601f840160051c820191505b81811015610e38575f8155600101610e25565b50505b505050565b815167ffffffffffffffff811115610e5a57610e5a610a58565b610e6e81610e688454610d35565b84610df4565b6020601f821160018114610ea0575f8315610e895750848201515b5f19600385901b1c1916600184901b178455610e38565b5f84815260208120601f198516915b82811015610ecf5787850151825560209485019460019092019101610eaf565b5084821015610eec57868401515f19600387901b60f8161c191681555b50505050600190811b01905550565b5f60018201610f0c57610f0c610cd0565b506001019056fea2646970667358221220ff7e94622df991338473427231bccf7a36ab24d10aab7ae9eb7fb48650eb663b64736f6c634300081c0033","linkReferences":{}},"methodIdentifiers":{"Quiz_list(uint256)":"6e3946c5","addQuiz((uint256,string,string,uint256,uint256))":"f101b3f1","betToPlay(uint256)":"54c63f82","bets(uint256,address)":"f644b3bb","claim(uint256)":"379607f5","getAnswer(uint256)":"b5ab58dc","getQuiz(uint256)":"a3f7e096","getQuizNum()":"c0da916f","list_count()":"434c0c48","solveQuiz(uint256,string)":"7487361f","vault_balance()":"8f7b0961"},"id":18}